:0A000000020E1753B2F743B10822B5
:0F000B00020E95740D1211557E27005BAD322247
:10001B000200B25394F75393F743BA807E34FEB683
:10002B007E24007E7E1BB0543F7A1BB07E1BB044F7
:10003B00807A1BB07E34FEED7E1BA0E47A1BB0747D
:10004B00687E14FEEB7E04007E7A0BB07CBA441003
:10005B007A1BB0E47E34FEF07A1BB074017E34FE62
:10006B00F17A1BB074027E34FEF27A1BB074577EA9
:10007B0034FEF37A1BB074057E34FEFB7A1BB0742E
:10008B00DC7E34FEFC7A1BB07E34FEB57E1BB044A6
:10009B00407A1BB074807E34FEFD7A1BB074017EF7
:1000AB0034FEE07A1BB022CAB874017AB3004FDA7F
:1000BB00B832C2B222D2B2220204460203A26E00AE
:1000CB00807CB1337CB033680D0468EF7CB5337C36
:1000DB00B43378037F10220468E17D5092F77D459D
:1000EB007D51BF2140067C807F017F121203657E0C
:1000FB00A1D05CB004780320D5C17CB00478075044
:10010B0002B2D50203AA92D5BE80FF68F67CB89CDA
:10011B00B06C00602AB418057C4102037E50FB8052
:10012B00032F00047C9B5E900778F630E4067C433B
:10013B007D106D0030E3087C437C327C210A00305B
:10014B00F5199F10780E220203A71B8068F92F1157
:10015B0050020B707CB530E7F1801B2D317CB5A5BF
:10016B00397C5B50110B8078030203AA1E341350A9
:10017B00034E60801A2B02037E5D22680D5D0078B2
:10018B00122D220B4068099F11222D000B0078F9CC
:10019B000203A21203655C800B8068082481500760
:1001AB002CB0500A0203AA2CB040030203A77C8B8D
:1001BB005D1178267CB17CA5BE1080680A5D337812
:1001CB000DA5BD80057F100203946D0080307F016B
:1001DB007C5B7CB17CA5AD1280245D337806A5BD1C
:1001EB0080F080E1CA887D41AD437CB17CA5AD1226
:1001FB002D1450020B047C5BAD232F01DA88A42D48
:10020B0005BE008040060B80780480982F007C434D
:10021B007C507C617C7202037EBE24FFFF6806BEAD
:10022B0004FFFF78030203A21203655CB00468F5B8
:10023B007CB8A54868EF7CB870039F1122A5B80065
:10024B00030203AA2E008150079C8038070203A7E4
:10025B009C8050ED0A51C2E74D5178030203947E06
:10026B005400807E901A6C0080061B9068142F112E
:10027B00BF1040049F104CAB0330E7EECAA86CAA2A
:10028B0080E8DA39DA587C4ABE5080500A1B806805
:10029B00BC2F1150020B7002037E74F86CAA6E40D7
:1002AB00806E0080BEB0FF68277C837C975C3B5CD4
:1002BB007BBF10682AF4400D7C382D15F45C3B5045
:1002CB000F0B04800B7C792D35F45C7B50020B24D7
:1002DB00BF10680B7CB020E7067CB420E701B3228B
:1002EB007EA020800C7EA01080057EA0086C556D32
:1002FB00333392D5500A6E34FFFF6E24FFFF0B1C75
:10030B00A5EC3340062F11D5F0F6227CBA247EA241
:10031B00D5137C767C65A5CC92E77C5B227CB533D0
:10032B007CB43392D54E5080248140039F11227CA4
:10033B00457C567C676C7724E0500E7E1CFFFF22B9
:10034B001E341E2450034E60800478F430D50A6EA0
:10035B0034FFFF6E24FFFF0B1C222D0092D50E10D5
:10036B004E10807D422D445002B2D54E50806C44CD
:10037B007CB8222C4450120B1C7E40005E507FBE7A
:10038B0018000078040B806816A2D57CB8137C4B40
:10039B007CB592E77C5B227E1CFFFF229F11227EA5
:1003AB0024FF8020D5026C456D33227D02AD31AD2B
:1003BB00102D21226D0074104D00780B4D227827E3
:1003CB008D317D126D22227D437D326D222F112DB9
:1003DB00445002A50FBF1040049F100B901478EDF2
:1003EB007F016D227D34227D417D138D247D022F73
:1003FB00004004BD0440049D040B141478F17D23CC
:10040B007D317D106D0022C2D57CB030E708B2D5AE
:10041B009F229F207F027CB430E713B2D59F229F8F
:10042B00217F121203C19F229F207F0280031203A0
:10043B00C130D5069F229F217F1222CA7BCA6BCA6D
:10044B005BCA4BCA3BCA2BCA1BCA0BC0D0C083C0EA
:10045B00827E74FE847E64007E7E3BB030E6117E2D
:10046B003BB054BF7A3BB074017AB3000F0206362F
:10047B007E3BB020E5030205807E3BB054DF7A3B28
:10048B00B07EB3000F6008E47AB3000F02063A7E29
:10049B00B300146036E47AB300147E34FE877E24F6
:1004AB00007E7E1B707A73000E7E73000EA5BF5606
:1004BB00157E14FE707E04007E7E0B607E14FE861D
:1004CB007A0B6002063A0A3702060C7E34FE877EF0
:1004DB0024007E7E1BB0BEB0B5780302063A7EA325
:1004EB00000E7CBA047AB3000E7CBABEB00940038E
:1004FB0002063A7EA003A4900506730205210205AD
:10050B003302053D02054702055102055B020565F5
:10051B0002056F0205767E1B307A3300137E3300A3
:10052B00137A33004D02063A7E1B307A3300780281
:10053B00063A7E1B307A33007902063A7E1B307AFC
:10054B0033007A02063A7E1B307A33007B02063A7E
:10055B007E1B307A33007C02063A7E1B307A3300E6
:10056B007D02063A7E1B707A73007E7E080078123D
:10057B000ADE02063A7E3BB020E40302061D7E3BF8
:10058B00B054EF7A3BB07E3BB030E102805B7EA390
:10059B00000EBEA05640617CBA047AB3000E0A3B33
:1005AB009E3400561B35681C1B34681E1B34682098
:1005BB001B3468221B3468242E340005782B7E34C0
:1005CB00FE71801C7E34FE7280167E34FE738010AA
:1005DB007E34FE74800A7E34FE7580047E34FE7693
:1005EB007E24007E7E1BB0800274FF7E34FE867EEE
:1005FB0024007E7A1BB080377CBA047AB3000E0AD3
:10060B003B093300387E34FE867E24007E7A1B3015
:10061B00801D7E3BB030E3177E3BB054F77A3BB086
:10062B0074017AB3000F7AB30014E47AB3000AD0E2
:10063B0082D083D0D0DA0BDA1BDA2BDA3BDA4BDA47
:10064B005BDA6BDA7B327E37001BBE34000A380371
:10065B0002080F7E3700361B3468481B34685A1B60
:10066B003478030206F52E340003680302074CA20C
:10067B00B3E43378077E34000102074E7EB3000CDF
:10068B00601D7E370018BE3400C838030207527E47
:10069B003400017A370016E47AB3000C0207526D6E
:1006AB00338041A2B3E433780B7E3400027A3700F7
:1006BB00360207446D3302074EA2B3E433B401068E
:1006CB007E340003807D7E370021BE341388280AD8
:1006DB007E2400057A270016806DBE3407D028676C
:1006EB007E3400037A370016805DA2B3E4337806BC
:1006FB007E340002804D6D337A3700367E3700161C
:10070B00BE340003780A7E2400047A270016801674
:10071B00BE3400057802800E7EB3000C600F7E3471
:10072B0000027A370016E47AB3000C800C74017A5D
:10073B00B3000C6D337A3700186D337A3700218094
:10074B00066D337A3700367E3700161B3568271B4C
:10075B0034684B1B3468491B34686D0B36680302D5
:10076B0008036D337A3700161214EDE47E70FF6CBC
:10077B0066120D9580496D337A370016E47E60FF63
:10078B00120D957E18006412144DE46C776C661292
:10079B000D957E18000A12144D12150380558058C2
:1007AB006D337A3700167EB300307E7300317E6373
:1007BB000032120D9574027AB300207AB3004E7E8C
:1007CB0018006412144D80366D337A3700167EB3E1
:1007DB0000237E7300247E630025120D957E180086
:1007EB006412144DE46C776C66120D957E18000A3A
:1007FB0012144D120F0680066D337A3700166D33C7
:10080B007A37001B22CA797E770016BE7400036804
:10081B0006BE740004780E7EB300307E7300317E0A
:10082B006300328012BE74000578127EB300237E03
:10083B007300247E630025120D950209A57EB3007B
:10084B005170030208E07E370027BE340032380CAB
:10085B007EB30026BEB00178030209A574017AB3FA
:10086B0000266D117E043F807E7F00297F171202C8
:10087B00A578049F11800D7E14CCCD7E043D4C7F5A
:10088B00171200CC7A1F00297E43001DE41202F5DB
:10089B007E7F00297F071201841203287CE77A737D
:1008AB00000B7E43001EE41202F57F071201841237
:1008BB0003287CF77A7300097E43001FE41202F5CC
:1008CB007F071201841203287C677A7300087CBEB1
:1008DB007C7F0209667EB3005D604F7E370027BECA
:1008EB003401F4380C7EB30026BEB0027803020943
:1008FB00A574027AB300267EB300157004740180D0
:10090B0001E47AB30015601D7EB300337AB3000B9C
:10091B007E7300347A7300097E6300357A630008B6
:10092B00120D95806F1211FE806A7EB300736030DA
:10093B007EB30060602A7E370027BE340BB83809BF
:10094B007EB30026BEB003685174037AB300267ED3
:10095B00B3002D7E73002E7E63002F120D95803415
:10096B007EB3005460347EB30060602E7E37002768
:10097B00BE340BB838097EB30026BEB004681B74B6
:10098B00047AB300267EB300107E7300117E6300E1
:10099B0012120D956D337A370027DA792212135420
:1009AB007A37005712147B7A37005E12000E9000D4
:1009BB00001BEA301214C07A37005212139A7A379E
:1009CB0000551214927A3700691212897A37007423
:1009DB007E240014120FC67A3700631214D77AB331
:1009EB0000507E370074BE34006408047401800725
:1009FB00BE3400325805E47AB300517E530050BE2A
:100A0B005014500474018001E47AB3005DBE34FFCE
:100A1B009C580474018001E47AB300737E37005E46
:100A2B00BE340BB85003E4800274017AB300541245
:100A3B0014A9BE340C1C50117E3405DC1213087E35
:100A4B003405DC7A37006B80077E37005E1211901D
:100A5B007E3700577A6300397A73003A7E37005E2F
:100A6B007A63003B7A73003C9000000BEA307A63A8
:100A7B00003D7A73003E7E3700527A63003F7A73F3
:100A8B0000407E3700557A6300417A7300427E370F
:100A9B0000697A6300437A7300447E3700747A638B
:100AAB0000457A7300467E7300507A7300477E3799
:100ABB0000637A6300487A7300497E7300737A731C
:100ACB00004A7E7300547A73004B7E7300517A7325
:100ADB00004C227F707E7B70BE7063280574177A82
:100AEB007BB029770001BE700C2806740C39B70057
:100AFB000129770002BE701F2806741F39B7000248
:100B0B0029770003BE70172806741739B70003291D
:100B1B00770004BE703B2806743B39B70004297775
:100B2B000005BE703B2806743239B70005297700E3
:100B3B0006BE707F2805E439B700067E7B307E3415
:100B4B00FE687E24007E7A1B30293700017E34FE3E
:100B5B00697A1B30293700027E34FE6A7A1B3029F2
:100B6B003700037E34FE6B7A1B30293700047E344A
:100B7B00FE6C7A1B30293700057E34FE6D7A1B30F4
:100B8B00293700067E34FE6E7A1B307E34FE617E82
:100B9B001BB044017A1BB074017E34FE607A1BB02B
:100BAB007E34FE617E24007E7E1BB020E0F222CAE2
:100BBB00F85396F85395F843BA80E47E14FEEC7E16
:100BCB0004007E7A0BB07E34FEED7E24007E7A1B11
:100BDB00B07EF0687E54FEE87E44007E7A2BF07E79
:100BEB0054FEE97A2BF07E54FEEA7A2BF074117ADC
:100BFB000BB074017A1BB0E47E34FEF07A1BB07438
:100C0B00017E34FEF17A1BB074027E34FEF27A1B45
:100C1B00B074577E34FEF37A1BB0E47E34FEF57A63
:100C2B001BB07E34FEF67A1BB07E34FEF77A1BB017
:100C3B007E34FEF87A1BB07E34FEF97A1BB07E341C
:100C4B00FEFA7A1BB07E34FEB57E1BB044017A1BD4
:100C5B00B07E1BB044047A1BB07E1BB044107A1BD1
:100C6B00B074807E34FEFD7A1BB074017E34FEE0DE
:100C7B007A1BB0DAF8221214927A370069BE34204C
:100C8B00D028086D337E2444FA80747E370069BE09
:100C9B0034183850049F1180667E370069BE341AB1
:100CAB0090282A7E2700699E241A907E3407D0ADA7
:100CBB00327D23E41202F07E14147B7E043F6E120D
:100CCB0001846D117E0444C812022480327E3700E9
:100CDB0069BE341A90502C7E2700699E2418387EEA
:100CEB003407D0AD327D23E41202F07E145C297EF2
:100CFB00043D8F1201846D117E0444161202247A76
:100D0B001F0063224396405395BFC2A643BA807E11
:100D1B0034FEB27E24007E7E1BB044407A1BB0E4CE
:100D2B007E34FECC7A1BB074687E34FECB7A1BB05B
:100D3B0074107E34FECD7A1BB0E47E34FED07A1B69
:100D4B00B0740F7E34FED17A1BB074277E34FED282
:100D5B007A1BB0740F7E34FED37A1BB0E47E34FE64
:100D6B00DB7A1BB07E34FEDC7A1BB07E34FEB17EA8
:100D7B001BB044407A1BB074807E34FEDD7A1BB00E
:100D8B0074017E34FEC07A1BB022CA797CF67CE7F4
:100D9B000A3B6D227EC402587D1C1203B67ED40022
:100DAB00FF7D1D1203BF7DF30A3E6D227D1C1203D6
:100DBB00B67D1D1203BF7DE30A3F6D227D1C12031E
:100DCB00B67D1D1203BF7D1343BA807E34FEF57EC4
:100DDB0024007E7A1B207E34FEF67A1B307D1E0AA1
:100DEB00127E34FEF77A1B307D3E7C377E34FEF864
:100DFB007A1B307D1F0A127E34FEF97A1B307D3F41
:100E0B007C377E34FEFA7A1B30DA79227584017EC8
:100E1B004407FFE47A49B01B4478F99000007E3414
:100E2B001800E4F0A31B3478FA7EF8007E7E0400F1
:100E3B00FF7E1415500B0A405D44681A69200002AE
:100E4B000B0E0B44800A7E0BB07A29B00B240B0CD3
:100E5B001B4478F280DF7E0400FF7E14166F0B0AB2
:100E6B00405D446822295000020A25693000032E98
:100E7B000800050B44800A7E0BB07A1BB00B1C0BD1
:100E8B000C1B4478F280D7021418CA7BCA6BCA5B5E
:100E9B00CA4BCA2BCA1BCA0BC0D0C083C0827E37B9
:100EAB00001B2E3400057A37001B7E3700212E34B1
:100EBB0000057A3700217E3700182E3400057A376B
:100ECB0000187E3700272E3400057A3700271214BE
:100EDB00A9BE340BB8500F7E3405DC1213087E34D8
:100EEB0005DC7A37006BD082D083D0D0DA0BDA1BDB
:100EFB00DA2BDA4BDA5BDA6BDA7B321200BD7E1857
:100F0B00000A12144DE47E34FE307E24007E7A1BE0
:100F1B00B07E34FE317A1BB06D337A370016D28A2D
:100F2B00D2AA7A37001B7A3700217A3700187A3722
:100F3B00002700000000A9D187000000001200C0AC
:100F4B001214EDE46C777E60FF120D9574FF7E3406
:100F5B00FE307E24007E7A1BB07E34FE317A1BB0CD
:100F6B00225396CF5395CFA9C5BAA9D4BA74817E13
:100F7B0034FE807E24007E7A1BB074B47E34FE85F2
:100F8B007A1BB0E47E34FE847A1BB074787E34FE18
:100F9B00837A1BB0A9C6B6A9C6B5D2AF74017AB312
:100FAB00000F7AB30014E47AB3000E7AB3000A7E12
:100FBB003300387E34FE867A1B30227DF3E4120236
:100FCB00F07F017D2F7CB41202F01201846D117E33
:100FDB000445611202246D117E04447A1202247EB0
:100FEB000F00631200CC7A1F00636DFF7EE444FA9E
:100FFB007E6F00637F167F071202A54002800B9F56
:10100B00777F169F001202A550047A7F00637E1F24
:10101B000063020328A9D7BA75EA0075E90012101C
:10102B00751200C01214ED12132F7AB3000D7AB3A0
:10103B000038120BBA74FF7E70FF7E60FF120D95A5
:10104B007E18006412144D5396F75395F71211C97D
:10105B00120003121113120D0F120F6C12001E123D
:10106B00152B1213BCD2AF020C8143B20453B1FB4C
:10107B0043B21053B1EF43B22053B1DF5394FD434E
:10108B0093025396F743950853967F439580439469
:10109B00085393F75394DF4393205394BF439340E8
:1010AB005392FE4391015392FD4391025392F743A6
:1010BB0091085392EF4391105392DF439120227D7D
:1010CB00239E2413247CB41202F07F617E270061DF
:1010DB007CB41202F07F017F161200C97F717F165C
:1010EB001203287A3700617E34CCCD7E243D4C7FB1
:1010FB00071201847F717E34D70A7E243DA37F06BD
:10110B001201847F070200CCA9D7BA53DEF043DE6D
:10111B000274387E34FEA87E24007E7A1BB0A9D5DB
:10112B00DEA9D7BC7E34FDE77E1B707C476C557EF9
:10113B0014FDE87E04007E7E0B700A372D327A3761
:10114B00006D1213547A37005722CAF87CFB740FC8
:10115B001213FA7A3700597CBF1213FA7DF37E27EC
:10116B000059E41202F07F017E27006D7CB412025D
:10117B00F01202247F017D2FE41202F0120184127F
:10118B000328DAF8221210CA1203287A3700677E76
:10119B0037006B9E3700677A37006BBE3405DC086F
:1011AB000A7E2405DC7A27006B800CBE34000058C5
:1011BB00066D337A37006B7E37006B02130874C0F1
:1011CB007E34FE087E24007E7A1BB07E34FE087EC1
:1011DB0024007E7E1BB030E0F27E34FE617E240064
:1011EB007E7E1BB054FD7A1BB074017E34FE607A98
:1011FB001BB02243BA80E47E34FEF57E24007E7A57
:10120B001BB07E34FEF67A1BB07E34FEF77A1BB031
:10121B007E34FEF87A1BB07E34FEF97A1BB07E3436
:10122B00FEFA7A1BB022CAF875C78075F50C75C526
:10123B00017CB7F5C47CB6F5C37CB5F5F675C65A1B
:10124B0075C6A5000000007EF1C21215187CBFDA2E
:10125B00F822CAF87CFB75C78075F50C75C5027C46
:10126B00B7F5C47CB6F5C37CB5F5F67AF1C275C695
:10127B005A75C6A500000000121518DAF822E41200
:10128B0011557D239E2404E2E41202F07E14D70A4A
:10129B007E043BA31202246D117E0442C812022469
:1012AB001203286E34FFFF0B34220A3B6D227E148F
:1012BB0027101203B67E1400641203BF7D1343BACA
:1012CB00807E34FEDB7E24007E7A1B207E34FEDCA7
:1012DB007A1B3022A2A3E433780F7E1801F4121488
:1012EB0064A2A3E4337802800E9F111212311BB15A
:1012FB00680504780580030214ED0215037D237E37
:10130B00340258AD237E1700571203BF7D1343BA27
:10131B00807E34FEFB7E24007E7A1B207E34FEFC16
:10132B007A1B302253B4FD43B30253B27F43B180D7
:10133B0053B2BF43B14030C10474018001E430C2E9
:10134B0002440230C302440422740F1213FA7D13B9
:10135B007A3700597E37006D1A261A24740C2F1118
:10136B001478FB6D001204127A3700572275C78070
:10137B0075F50C75C5037CB7F5C47CB6F5C37CB5A8
:10138B00F5F675C65A75C6A500000000021518744F
:10139B000E1211557D23E41202F07E14D70A7E043F
:1013AB003BA31202246D117E0442C81202240203D5
:1013BB002874017E34FEA17E24007E7A1BB0538EEE
:1013CB00BF53890F758BCA758D7DC28FD28ED2ABF1
:1013DB0022A2A7E433B401167E18000512144DA205
:1013EB00A7E433B40108E47AB3004E020F0622538C
:1013FB00BCF042BCA9D6BC0000A935BCFCA9C5BC3D
:10140B00E5BD7C4B6C55E5BE0A3B4D3222121020DC
:10141B007EB3004FB401F9E47AB3004F12065112B8
:10142B00081012153E1209A880E6CA3B7F318007CF
:10143B007E1803E812144D7F131B3C4D2378F1DA11
:10144B003B220000007E1427101203B61B1D8002E6
:10145B001B1CBE18000078F8220000007E14000A46
:10146B001203B61B1D80021B1CBE18000078F8224D
:10147B0074051211557D23E41202F06D117E0440A8
:10148B000012018402032874031211557D23E41208
:10149B0002F06D117E044040120184020328740493
:1014AB001211557D23E41202F06D117E04400012DF
:1014BB00018402032874011211557D23E41202F0FA
:1014CB006D117E0440001201840203287E1F00630D
:1014DB001203280A377E2407D08D327E540064AD68
:1014EB005322D2B4D2B574017AB300609F11121398
:1014FB00789F11740202125DC2B4C2B5E47AB300D4
:10150B00609F111213789F11740102125D75C70051
:10151B0075C50075C60075F60075C30075C400224D
:10152B00538E7F5389F0758AE5758CBEC28DD28C34
:10153B00D2A9227EB30013BEB3001A68077AB30098
:10154B001A0212B522000100080000010009000078
:10155B0001000B000001000C000001000D00000356
:10156B00001000FF00000100130000010015000037
:10157B0002001800000001001A000002001B00000E
:10158B000003001DFF3200000100200000020021BB
:10159B00000000030023FF000000010026000002F2
:1015AB000027000000040029000000000003002DAC
:1015BB00FFC80000030030FF00FF00030033FF00F3
:1015CB000000170038000102030405060708090A8A
:1015DB000B0C0D0E0F101112131415160001004FEA
:1015EB0000000100500000010051000002005200F9
:1015FB0000000100540000020055000000020057DB
:10160B0000000002005900000002005B0002000114
:10161B00005D000002005E0000000100600000029F
:10162B00006100000004006300000000000200677E
:10163B0000000002006900000002006B05DC0004E2
:10164B00006F000000000001007300000200740036
:10165B000000020076000000070078150C1F173BF6
:0D166B00320000000002010000000000003D
:00000001FF
